:100000000C942A000C946E000C946E000C946E00FC
:100010000C946E000C946E000C946E000C946E00A8
:100020000C946E000C946E000C946E000C946E0098
:100030000C946E000C946E000C946E000C946E0088
:100040000C946E000C946E000C946E000C946E0078
:100050000C946E0011241FBECFE5D8E0DEBFCDBFEB
:0C0060000E9436000C946300F894FFCF5F
:10006C008AB38FEF8ABB11BA24E130E08BB38BBB20
:10007C008BB388608BBB8BB38BBB8BB382608BBB1E
:10008C008BB380628BBB8BB380648BBB83B3121638
:10009C0013066CF08BB38BBB8BB38BBB8BB38BBB53
:1000AC008BB38BBB8BB38BBB8BB38BBB01C083B3C1
:0A00BC009F9BDCCF21503109D9CF02
:1000C600EC010E9473000E947200CE010E9474002F
:0600D600CE010E94700043
:0400DC000C94000080
:0400E0000E94340046
:0200E40008957D
:0200E60008957B
:0200E800089579
:00000001FF
